{
  "_format": "hh-sol-artifact-1",
  "contractName": "L1ERC20Bridge",
  "sourceName": "cache/solpp-generated-contracts/bridge/L1ERC20Bridge.sol",
  "abi": [
    {
      "inputs": [
        {
          "internalType": "contract IZkSync",
          "name": "_zkSync",
          "type": "address"
        },
        {
          "internalType": "contract IAllowList",
          "name": "_allowList",
          "type": "address"
        }
      ],
      "stateMutability": "nonpayable",
      "type": "constructor"
    },
    {
      "anonymous": false,
      "inputs": [
        {
          "indexed": true,
          "internalType": "address",
          "name": "to",
          "type": "address"
        },
        {
          "indexed": true,
          "internalType": "address",
          "name": "l1Token",
          "type": "address"
        },
        {
          "indexed": false,
          "internalType": "uint256",
          "name": "amount",
          "type": "uint256"
        }
      ],
      "name": "ClaimedFailedDeposit",
      "type": "event"
    },
    {
      "anonymous": false,
      "inputs": [
        {
          "indexed": true,
          "internalType": "bytes32",
          "name": "l2DepositTxHash",
          "type": "bytes32"
        },
        {
          "indexed": true,
          "internalType": "address",
          "name": "from",
          "type": "address"
        },
        {
          "indexed": true,
          "internalType": "address",
          "name": "to",
          "type": "address"
        },
        {
          "indexed": false,
          "internalType": "address",
          "name": "l1Token",
          "type": "address"
        },
        {
          "indexed": false,
          "internalType": "uint256",
          "name": "amount",
          "type": "uint256"
        }
      ],
      "name": "DepositInitiated",
      "type": "event"
    },
    {
      "anonymous": false,
      "inputs": [
        {
          "indexed": true,
          "internalType": "address",
          "name": "to",
          "type": "address"
        },
        {
          "indexed": true,
          "internalType": "address",
          "name": "l1Token",
          "type": "address"
        },
        {
          "indexed": false,
          "internalType": "uint256",
          "name": "amount",
          "type": "uint256"
        }
      ],
      "name": "WithdrawalFinalized",
      "type": "event"
    },
    {
      "inputs": [
        {
          "internalType": "address",
          "name": "",
          "type": "address"
        }
      ],
      "name": "__DEPRECATED_lastWithdrawalLimitReset",
      "outputs": [
        {
          "internalType": "uint256",
          "name": "",
          "type": "uint256"
        }
      ],
      "stateMutability": "view",
      "type": "function"
    },
    {
      "inputs": [
        {
          "internalType": "address",
          "name": "",
          "type": "address"
        }
      ],
      "name": "__DEPRECATED_withdrawnAmountInWindow",
      "outputs": [
        {
          "internalType": "uint256",
          "name": "",
          "type": "uint256"
        }
      ],
      "stateMutability": "view",
      "type": "function"
    },
    {
      "inputs": [
        {
          "internalType": "address",
          "name": "_depositSender",
          "type": "address"
        },
        {
          "internalType": "address",
          "name": "_l1Token",
          "type": "address"
        },
        {
          "internalType": "bytes32",
          "name": "_l2TxHash",
          "type": "bytes32"
        },
        {
          "internalType": "uint256",
          "name": "_l2BlockNumber",
          "type": "uint256"
        },
        {
          "internalType": "uint256",
          "name": "_l2MessageIndex",
          "type": "uint256"
        },
        {
          "internalType": "uint16",
          "name": "_l2TxNumberInBlock",
          "type": "uint16"
        },
        {
          "internalType": "bytes32[]",
          "name": "_merkleProof",
          "type": "bytes32[]"
        }
      ],
      "name": "claimFailedDeposit",
      "outputs": [],
      "stateMutability": "nonpayable",
      "type": "function"
    },
    {
      "inputs": [
        {
          "internalType": "address",
          "name": "_l2Receiver",
          "type": "address"
        },
        {
          "internalType": "address",
          "name": "_l1Token",
          "type": "address"
        },
        {
          "internalType": "uint256",
          "name": "_amount",
          "type": "uint256"
        },
        {
          "internalType": "uint256",
          "name": "_l2TxGasLimit",
          "type": "uint256"
        },
        {
          "internalType": "uint256",
          "name": "_l2TxGasPerPubdataByte",
          "type": "uint256"
        }
      ],
      "name": "deposit",
      "outputs": [
        {
          "internalType": "bytes32",
          "name": "l2TxHash",
          "type": "bytes32"
        }
      ],
      "stateMutability": "nonpayable",
      "type": "function"
    },
    {
      "inputs": [
        {
          "internalType": "address",
          "name": "_l2Receiver",
          "type": "address"
        },
        {
          "internalType": "address",
          "name": "_l1Token",
          "type": "address"
        },
        {
          "internalType": "uint256",
          "name": "_amount",
          "type": "uint256"
        },
        {
          "internalType": "uint256",
          "name": "_l2TxGasLimit",
          "type": "uint256"
        },
        {
          "internalType": "uint256",
          "name": "_l2TxGasPerPubdataByte",
          "type": "uint256"
        },
        {
          "internalType": "address",
          "name": "_refundRecipient",
          "type": "address"
        },
        {
          "internalType": "uint256",
          "name": "_l1Amount",
          "type": "uint256"
        }
      ],
      "name": "deposit",
      "outputs": [
        {
          "internalType": "bytes32",
          "name": "l2TxHash",
          "type": "bytes32"
        }
      ],
      "stateMutability": "nonpayable",
      "type": "function"
    },
    {
      "inputs": [
        {
          "internalType": "uint256",
          "name": "_l2BlockNumber",
          "type": "uint256"
        },
        {
          "internalType": "uint256",
          "name": "_l2MessageIndex",
          "type": "uint256"
        },
        {
          "internalType": "uint16",
          "name": "_l2TxNumberInBlock",
          "type": "uint16"
        },
        {
          "internalType": "bytes",
          "name": "_message",
          "type": "bytes"
        },
        {
          "internalType": "bytes32[]",
          "name": "_merkleProof",
          "type": "bytes32[]"
        }
      ],
      "name": "finalizeWithdrawal",
      "outputs": [],
      "stateMutability": "nonpayable",
      "type": "function"
    },
    {
      "inputs": [
        {
          "internalType": "bytes[]",
          "name": "_factoryDeps",
          "type": "bytes[]"
        },
        {
          "internalType": "address",
          "name": "_l2TokenBeacon",
          "type": "address"
        },
        {
          "internalType": "address",
          "name": "_governor",
          "type": "address"
        },
        {
          "internalType": "uint256",
          "name": "_deployBridgeImplementationFee",
          "type": "uint256"
        },
        {
          "internalType": "uint256",
          "name": "_deployBridgeProxyFee",
          "type": "uint256"
        }
      ],
      "name": "initialize",
      "outputs": [],
      "stateMutability": "nonpayable",
      "type": "function"
    },
    {
      "inputs": [
        {
          "internalType": "uint256",
          "name": "",
          "type": "uint256"
        },
        {
          "internalType": "uint256",
          "name": "",
          "type": "uint256"
        }
      ],
      "name": "isWithdrawalFinalized",
      "outputs": [
        {
          "internalType": "bool",
          "name": "",
          "type": "bool"
        }
      ],
      "stateMutability": "view",
      "type": "function"
    },
    {
      "inputs": [],
      "name": "l2Bridge",
      "outputs": [
        {
          "internalType": "address",
          "name": "",
          "type": "address"
        }
      ],
      "stateMutability": "view",
      "type": "function"
    },
    {
      "inputs": [
        {
          "internalType": "address",
          "name": "_l1Token",
          "type": "address"
        }
      ],
      "name": "l2TokenAddress",
      "outputs": [
        {
          "internalType": "address",
          "name": "",
          "type": "address"
        }
      ],
      "stateMutability": "view",
      "type": "function"
    },
    {
      "inputs": [],
      "name": "l2TokenBeacon",
      "outputs": [
        {
          "internalType": "address",
          "name": "",
          "type": "address"
        }
      ],
      "stateMutability": "view",
      "type": "function"
    },
    {
      "inputs": [],
      "name": "l2TokenProxyBytecodeHash",
      "outputs": [
        {
          "internalType": "bytes32",
          "name": "",
          "type": "bytes32"
        }
      ],
      "stateMutability": "view",
      "type": "function"
    },
    {
      "inputs": [
        {
          "internalType": "address",
          "name": "",
          "type": "address"
        },
        {
          "internalType": "address",
          "name": "",
          "type": "address"
        }
      ],
      "name": "totalDepositedAmountPerUser",
      "outputs": [
        {
          "internalType": "uint256",
          "name": "",
          "type": "uint256"
        }
      ],
      "stateMutability": "view",
      "type": "function"
    }
  ],
  "bytecode": "0x60c06040523480156200001157600080fd5b50604051620032fe380380620032fe8339810160408190526200003491620000cf565b6200003e62000056565b6001600160a01b0391821660a052166080526200010e565b7f8e94fed44239eb2314ab7a406345e6c5a8f0ccedf3b600de3d004e672c33abf4805460019091558015620000b65760405162461bcd60e51b815260206004820152600260248201526118a160f11b604482015260640160405180910390fd5b50565b6001600160a01b0381168114620000b657600080fd5b60008060408385031215620000e357600080fd5b8251620000f081620000b9565b60208401519092506200010381620000b9565b809150509250929050565b60805160a0516131996200016560003960008181610586015281816109c101528181610fe70152818161142f015261157a0152600081816103920152818161089901528181610d6a015261193d01526131996000f3fe608060405234801561001057600080fd5b50600436106100df5760003560e01c8063933999fb1161008c578063a047378511610066578063a04737851461020e578063a52afbe314610221578063ae1f6aaf1461024c578063f5f151681461026c57600080fd5b8063933999fb146101c85780639d97dc74146101db5780639da08054146101ee57600080fd5b80634bed8212116100bd5780634bed82121461013f5780636dde72091461017a578063823f1d96146101bf57600080fd5b806311a2ccc1146100e457806319fa7f62146100f957806339e05cb21461010c575b600080fd5b6100f76100f2366004612740565b61027f565b005b6100f7610107366004612826565b61078b565b61012c61011a3660046128b8565b60056020526000908152604090205481565b6040519081526020015b60405180910390f35b61016a61014d3660046128da565b600060208181529281526040808220909352908152205460ff1681565b6040519015158152602001610136565b60035461019a9073ffffffffffffffffffffffffffffffffffffffff1681565b60405173ffffffffffffffffffffffffffffffffffffffff9091168152602001610136565b61012c60045481565b61012c6101d63660046128fc565b610c3d565b61012c6101e9366004612949565b610c59565b61012c6101fc3660046128b8565b60066020526000908152604090205481565b6100f761021c3660046129b3565b6111e6565b61012c61022f366004612a2a565b600760209081526000928352604080842090915290825290205481565b60025461019a9073ffffffffffffffffffffffffffffffffffffffff1681565b61019a61027a3660046128b8565b611611565b7f8e94fed44239eb2314ab7a406345e6c5a8f0ccedf3b600de3d004e672c33abf45460018114610310576040517f08c379a000000000000000000000000000000000000000000000000000000000815260206004820152600260248201527f723100000000000000000000000000000000000000000000000000000000000060448201526064015b60405180910390fd5b60027f8e94fed44239eb2314ab7a406345e6c5a8f0ccedf3b600de3d004e672c33abf4556040517fb70096130000000000000000000000000000000000000000000000000000000081523360048201523060248201526000357fffffffff000000000000000000000000000000000000000000000000000000001660448201527f00000000000000000000000000000000000000000000000000000000000000009073ffffffffffffffffffffffffffffffffffffffff82169063b700961390606401602060405180830381865afa1580156103f0573d6000803e3d6000fd5b505050506040513d601f19601f820116820180604052508101906104149190612a6d565b61047a576040517f08c379a000000000000000000000000000000000000000000000000000000000815260206004820152600260248201527f6e720000000000000000000000000000000000000000000000000000000000006044820152606401610307565b6000898152602081815260408083208b845290915290205460ff16156104fc576040517f08c379a000000000000000000000000000000000000000000000000000000000815260206004820152600260248201527f70770000000000000000000000000000000000000000000000000000000000006044820152606401610307565b6040805160608101825261ffff8916815260025473ffffffffffffffffffffffffffffffffffffffff166020808301919091528251601f890182900482028101820184528881526000938301918a908a90819084018382808284376000920182905250939094525050604083015192935091829150819061057c906116d8565b92509250925060007f000000000000000000000000000000000000000000000000000000000000000073ffffffffffffffffffffffffffffffffffffffff1663e4948f438f8f888d8d6040518663ffffffff1660e01b81526004016105e5959493929190612b41565b602060405180830381865afa158015610602573d6000803e3d6000fd5b505050506040513d601f19601f820116820180604052508101906106269190612a6d565b90508061068f576040517f08c379a000000000000000000000000000000000000000000000000000000000815260206004820152600260248201527f6e710000000000000000000000000000000000000000000000000000000000006044820152606401610307565b5060008d8152602081815260408083208f8452909152902080547fffffffffffffffffffffffffffffffffffffffffffffffffffffffffffffff001660011790556106f173ffffffffffffffffffffffffffffffffffffffff8316848361181c565b8173ffffffffffffffffffffffffffffffffffffffff168373ffffffffffffffffffffffffffffffffffffffff167fac1b18083978656d557d6e91c88203585cfda1031bdb14538327121ef140d3838360405161075091815260200190565b60405180910390a3505050505060017f8e94fed44239eb2314ab7a406345e6c5a8f0ccedf3b600de3d004e672c33abf4555050505050505050565b7f8e94fed44239eb2314ab7a406345e6c5a8f0ccedf3b600de3d004e672c33abf45460018114610817576040517f08c379a000000000000000000000000000000000000000000000000000000000815260206004820152600260248201527f72310000000000000000000000000000000000000000000000000000000000006044820152606401610307565b60027f8e94fed44239eb2314ab7a406345e6c5a8f0ccedf3b600de3d004e672c33abf4556040517fb70096130000000000000000000000000000000000000000000000000000000081523360048201523060248201526000357fffffffff000000000000000000000000000000000000000000000000000000001660448201527f00000000000000000000000000000000000000000000000000000000000000009073ffffffffffffffffffffffffffffffffffffffff82169063b700961390606401602060405180830381865afa1580156108f7573d6000803e3d6000fd5b505050506040513d601f19601f8201168201806040525081019061091b9190612a6d565b610981576040517f08c379a000000000000000000000000000000000000000000000000000000000815260206004820152600260248201527f6e720000000000000000000000000000000000000000000000000000000000006044820152606401610307565b6040517f042901c700000000000000000000000000000000000000000000000000000000815260009073ffffffffffffffffffffffffffffffffffffffff7f0000000000000000000000000000000000000000000000000000000000000000169063042901c790610a02908c908c908c908c908c908c908a90600401612bb8565b602060405180830381865afa158015610a1f573d6000803e3d6000fd5b505050506040513d601f19601f82011682018060405250810190610a439190612a6d565b905080610aac576040517f08c379a000000000000000000000000000000000000000000000000000000000815260206004820152600260248201527f796e0000000000000000000000000000000000000000000000000000000000006044820152606401610307565b73ffffffffffffffffffffffffffffffffffffffff808c166000908152600160209081526040808320938e1683529281528282208c83529052205480610b4e576040517f08c379a000000000000000000000000000000000000000000000000000000000815260206004820152600260248201527f79310000000000000000000000000000000000000000000000000000000000006044820152606401610307565b610b5b8b8d8360016118f5565b73ffffffffffffffffffffffffffffffffffffffff808d166000908152600160209081526040808320938f168084529382528083208e8452909152812055610ba4908d8361181c565b8a73ffffffffffffffffffffffffffffffffffffffff168c73ffffffffffffffffffffffffffffffffffffffff167fbe066dc591f4a444f75176d387c3e6c775e5706d9ea9a91d11eb49030c66cf6083604051610c0391815260200190565b60405180910390a350505060017f8e94fed44239eb2314ab7a406345e6c5a8f0ccedf3b600de3d004e672c33abf455505050505050505050565b6000610c4f8686868686600080610c59565b9695505050505050565b7f8e94fed44239eb2314ab7a406345e6c5a8f0ccedf3b600de3d004e672c33abf45460009060018114610ce8576040517f08c379a000000000000000000000000000000000000000000000000000000000815260206004820152600260248201527f72310000000000000000000000000000000000000000000000000000000000006044820152606401610307565b60027f8e94fed44239eb2314ab7a406345e6c5a8f0ccedf3b600de3d004e672c33abf4556040517fb70096130000000000000000000000000000000000000000000000000000000081523360048201523060248201526000357fffffffff000000000000000000000000000000000000000000000000000000001660448201527f00000000000000000000000000000000000000000000000000000000000000009073ffffffffffffffffffffffffffffffffffffffff82169063b700961390606401602060405180830381865afa158015610dc8573d6000803e3d6000fd5b505050506040513d601f19601f82011682018060405250810190610dec9190612a6d565b610e52576040517f08c379a000000000000000000000000000000000000000000000000000000000815260206004820152600260248201527f6e720000000000000000000000000000000000000000000000000000000000006044820152606401610307565b87600003610ebc576040517f08c379a000000000000000000000000000000000000000000000000000000000815260206004820152600260248201527f32540000000000000000000000000000000000000000000000000000000000006044820152606401610307565b6000610ec9338b8b611b0b565b9050888114610f34576040517f08c379a000000000000000000000000000000000000000000000000000000000815260206004820152600260248201527f31540000000000000000000000000000000000000000000000000000000000006044820152606401610307565b610f418a338b60006118f5565b6000610f4f338d8d85611c5f565b90508673ffffffffffffffffffffffffffffffffffffffff8116610f9557323303610f7a5733610f92565b73111100000000000000000000000000000000111133015b90505b6040805160a08101825260025473ffffffffffffffffffffffffffffffffffffffff9081168252600060208084018290528385018c9052606084018f9052608084018e905284518281529081019094527f00000000000000000000000000000000000000000000000000000000000000009091169263235985e6928b9290918791611030565b606081526020019060019003908161101b5790505b50866040518663ffffffff1660e01b8152600401611052959493929190612c62565b6020604051808303816000875af1158015611071573d6000803e3d6000fd5b505050506040513d601f19601f820116820180604052508101906110959190612d5b565b955082600160003373ffffffffffffffffffffffffffffffffffffffff1673ffffffffffffffffffffffffffffffffffffffff16815260200190815260200160002060008e73ffffffffffffffffffffffffffffffffffffffff1673ffffffffffffffffffffffffffffffffffffffff1681526020019081526020016000206000888152602001908152602001600020819055508c73ffffffffffffffffffffffffffffffffffffffff163373ffffffffffffffffffffffffffffffffffffffff16877fdd341179f4edc78148d894d0213a96d212af2cbaf223d19ef6d483bdd47ab81d8f876040516111aa92919073ffffffffffffffffffffffffffffffffffffffff929092168252602082015260400190565b60405180910390a45050505060017f8e94fed44239eb2314ab7a406345e6c5a8f0ccedf3b600de3d004e672c33abf45550979650505050505050565b6111ee611d07565b73ffffffffffffffffffffffffffffffffffffffff841661126b576040517f08c379a000000000000000000000000000000000000000000000000000000000815260206004820152600260248201527f6e660000000000000000000000000000000000000000000000000000000000006044820152606401610307565b73ffffffffffffffffffffffffffffffffffffffff83166112e8576040517f08c379a000000000000000000000000000000000000000000000000000000000815260206004820152600260248201527f6e680000000000000000000000000000000000000000000000000000000000006044820152606401610307565b60038514611352576040517f08c379a000000000000000000000000000000000000000000000000000000000815260206004820152600260248201527f6d6b0000000000000000000000000000000000000000000000000000000000006044820152606401610307565b6113b48686600281811061136857611368612d74565b905060200281019061137a9190612da3565b8080601f016020809104026020016040519081016040528093929190818152602001838380828437600092019190915250611d9a92505050565b600455600380547fffffffffffffffffffffffff00000000000000000000000000000000000000001673ffffffffffffffffffffffffffffffffffffffff8616179055600061140c8787838161136857611368612d74565b905060006114268888600181811061136857611368612d74565b905060006114727f00000000000000000000000000000000000000000000000000000000000000008685604051806020016040528060008152508d8d9061146d9190612e57565b611fa3565b600454604051306024820152604481019190915273ffffffffffffffffffffffffffffffffffffffff88166064820152909150606090600090608401604080517fffffffffffffffffffffffffffffffffffffffffffffffffffffffffffffffe0818403018152918152602080830180517bffffffffffffffffffffffffffffffffffffffffffffffffffffffff167fd26b3e6e00000000000000000000000000000000000000000000000000000000179052905191925061153a9185918b91859101612f4a565b604080518083037fffffffffffffffffffffffffffffffffffffffffffffffffffffffffffffffe001815260008084526020840190925293506115c092507f0000000000000000000000000000000000000000000000000000000000000000918891879186916115ba565b60608152602001906001900390816115a55790505b50611fa3565b600280547fffffffffffffffffffffffff00000000000000000000000000000000000000001673ffffffffffffffffffffffffffffffffffffffff9290921691909117905550505050505050505050565b6003546040805173ffffffffffffffffffffffffffffffffffffffff92831660208083019190915281830183905260006060808401829052845180850390910181526080840185528051908301206002546004547f2020dba91b30cc0006188af794c2fb30dd8520db7e2c088b7fc7c103c00ca49460a087015290871660c086015295871660e0850181905261010085019690965261012080850182905285518086039091018152610140909401909452825192909101919091209092905b949350505050565b60008060008351604c14611748576040517f08c379a000000000000000000000000000000000000000000000000000000000815260206004820152600260248201527f6b6b0000000000000000000000000000000000000000000000000000000000006044820152606401610307565b600484810151907f11a2ccc1000000000000000000000000000000000000000000000000000000007fffffffff0000000000000000000000000000000000000000000000000000000060e084901b16146117fe576040517f08c379a000000000000000000000000000000000000000000000000000000000815260206004820152600260248201527f6e740000000000000000000000000000000000000000000000000000000000006044820152606401610307565b60149501948501516028860151604890960151909690945092505050565b60405173ffffffffffffffffffffffffffffffffffffffff83166024820152604481018290526118f09084907fa9059cbb00000000000000000000000000000000000000000000000000000000906064015b604080517fffffffffffffffffffffffffffffffffffffffffffffffffffffffffffffffe08184030181529190526020810180517bffffffffffffffffffffffffffffffffffffffffffffffffffffffff167fffffffff000000000000000000000000000000000000000000000000000000009093169290921790915261219d565b505050565b6040517f7cf1470100000000000000000000000000000000000000000000000000000000815273ffffffffffffffffffffffffffffffffffffffff85811660048301526000917f000000000000000000000000000000000000000000000000000000000000000090911690637cf14701906024016040805180830381865afa158015611985573d6000803e3d6000fd5b505050506040513d601f19601f820116820180604052508101906119a99190612f8c565b80519091506119b85750611b05565b8115611a0d5773ffffffffffffffffffffffffffffffffffffffff808616600090815260076020908152604080832093881683529290529081208054859290611a02908490613012565b90915550611b039050565b60208082015173ffffffffffffffffffffffffffffffffffffffff808816600090815260078452604080822092891682529190935290912054611a5190859061302b565b1115611ab9576040517f08c379a000000000000000000000000000000000000000000000000000000000815260206004820152600260248201527f64310000000000000000000000000000000000000000000000000000000000006044820152606401610307565b73ffffffffffffffffffffffffffffffffffffffff808616600090815260076020908152604080832093881683529290529081208054859290611afd90849061302b565b90915550505b505b50505050565b6040517f70a08231000000000000000000000000000000000000000000000000000000008152306004820152600090819073ffffffffffffffffffffffffffffffffffffffff8516906370a0823190602401602060405180830381865afa158015611b7a573d6000803e3d6000fd5b505050506040513d601f19601f82011682018060405250810190611b9e9190612d5b565b9050611bc273ffffffffffffffffffffffffffffffffffffffff85168630866122a9565b6040517f70a0823100000000000000000000000000000000000000000000000000000000815230600482015260009073ffffffffffffffffffffffffffffffffffffffff8616906370a0823190602401602060405180830381865afa158015611c2f573d6000803e3d6000fd5b505050506040513d601f19601f82011682018060405250810190611c539190612d5b565b9050610c4f8282613012565b60606000611c6c84612307565b90508585858584604051602401611c8795949392919061303e565b604080517fffffffffffffffffffffffffffffffffffffffffffffffffffffffffffffffe08184030181529190526020810180517bffffffffffffffffffffffffffffffffffffffffffffffffffffffff167fcfe7af7c000000000000000000000000000000000000000000000000000000001790529695505050505050565b7f8e94fed44239eb2314ab7a406345e6c5a8f0ccedf3b600de3d004e672c33abf4805460019091558015611d97576040517f08c379a000000000000000000000000000000000000000000000000000000000815260206004820152600260248201527f31420000000000000000000000000000000000000000000000000000000000006044820152606401610307565b50565b600060208251611daa91906130b4565b15611e11576040517f08c379a000000000000000000000000000000000000000000000000000000000815260206004820152600260248201527f626c0000000000000000000000000000000000000000000000000000000000006044820152606401610307565b600060208351611e2191906130c8565b9050620100008110611e8f576040517f08c379a000000000000000000000000000000000000000000000000000000000815260206004820152600260248201527f70700000000000000000000000000000000000000000000000000000000000006044820152606401610307565b611e9a6002826130b4565b600114611f03576040517f08c379a000000000000000000000000000000000000000000000000000000000815260206004820152600260248201527f70720000000000000000000000000000000000000000000000000000000000006044820152606401610307565b600283604051611f1391906130dc565b602060405180830381855afa158015611f30573d6000803e3d6000fd5b5050506040513d601f19601f82011682018060405250810190611f539190612d5b565b60e09190911b7bffffffffffffffffffffffffffffffffffffffffffffffffffffffff91909116177f01000000000000000000000000000000000000000000000000000000000000001792915050565b6000806000801b8585604051602401611fbe939291906130f8565b604080517fffffffffffffffffffffffffffffffffffffffffffffffffffffffffffffffe0818403018152918152602080830180517bffffffffffffffffffffffffffffffffffffffffffffffffffffffff167f3cda335100000000000000000000000000000000000000000000000000000000179052815160a0810183526180068152600091810191909152808201899052629896806060820152610320608082015290517f235985e600000000000000000000000000000000000000000000000000000000815291925073ffffffffffffffffffffffffffffffffffffffff89169163235985e6916120bd918a9190869089903390600401612c62565b6020604051808303816000875af11580156120dc573d6000803e3d6000fd5b505050506040513d601f19601f820116820180604052508101906121009190612d5b565b508351602080860191909120604080517f2020dba91b30cc0006188af794c2fb30dd8520db7e2c088b7fc7c103c00ca4948185015273ffffffffffffffffffffffffffffffffffffffff30731111000000000000000000000000000000001111011681830152600060608201526080810189905260a0808201939093528151808203909301835260c001905280519101205b979650505050505050565b60006121ff826040518060400160405280602081526020017f5361666545524332303a206c6f772d6c6576656c2063616c6c206661696c65648152508573ffffffffffffffffffffffffffffffffffffffff1661257c9092919063ffffffff16565b8051909150156118f0578080602001905181019061221d9190612a6d565b6118f0576040517f08c379a000000000000000000000000000000000000000000000000000000000815260206004820152602a60248201527f5361666545524332303a204552433230206f7065726174696f6e20646964206e60448201527f6f742073756363656564000000000000000000000000000000000000000000006064820152608401610307565b60405173ffffffffffffffffffffffffffffffffffffffff80851660248301528316604482015260648101829052611b059085907f23b872dd000000000000000000000000000000000000000000000000000000009060840161186e565b60408051600481526024810182526020810180517bffffffffffffffffffffffffffffffffffffffffffffffffffffffff167f06fdde0300000000000000000000000000000000000000000000000000000000179052905160609160009173ffffffffffffffffffffffffffffffffffffffff851691612386916130dc565b600060405180830381855afa9150503d80600081146123c1576040519150601f19603f3d011682016040523d82523d6000602084013e6123c6565b606091505b5060408051600481526024810182526020810180517bffffffffffffffffffffffffffffffffffffffffffffffffffffffff167f95d89b410000000000000000000000000000000000000000000000000000000017905290519193506000925073ffffffffffffffffffffffffffffffffffffffff86169161244891906130dc565b600060405180830381855afa9150503d8060008114612483576040519150601f19603f3d011682016040523d82523d6000602084013e612488565b606091505b5060408051600481526024810182526020810180517bffffffffffffffffffffffffffffffffffffffffffffffffffffffff167f313ce5670000000000000000000000000000000000000000000000000000000017905290519193506000925073ffffffffffffffffffffffffffffffffffffffff87169161250a91906130dc565b600060405180830381855afa9150503d8060008114612545576040519150601f19603f3d011682016040523d82523d6000602084013e61254a565b606091505b5091505082828260405160200161256393929190613117565b6040516020818303038152906040529350505050919050565b60606116d08484600085856000808673ffffffffffffffffffffffffffffffffffffffff1685876040516125b091906130dc565b60006040518083038185875af1925050503d80600081146125ed576040519150601f19603f3d011682016040523d82523d6000602084013e6125f2565b606091505b5091509150612192878383876060831561269457825160000361268d5773ffffffffffffffffffffffffffffffffffffffff85163b61268d576040517f08c379a000000000000000000000000000000000000000000000000000000000815260206004820152601d60248201527f416464726573733a2063616c6c20746f206e6f6e2d636f6e74726163740000006044820152606401610307565b50816116d0565b6116d083838151156126a95781518083602001fd5b806040517f08c379a00000000000000000000000000000000000000000000000000000000081526004016103079190613150565b803561ffff811681146126ef57600080fd5b919050565b60008083601f84011261270657600080fd5b50813567ffffffffffffffff81111561271e57600080fd5b6020830191508360208260051b850101111561273957600080fd5b9250929050565b600080600080600080600060a0888a03121561275b57600080fd5b8735965060208801359550612772604089016126dd565b9450606088013567ffffffffffffffff8082111561278f57600080fd5b818a0191508a601f8301126127a357600080fd5b8135818111156127b257600080fd5b8b60208285010111156127c457600080fd5b6020830196508095505060808a01359150808211156127e257600080fd5b506127ef8a828b016126f4565b989b979a50959850939692959293505050565b803573ffffffffffffffffffffffffffffffffffffffff811681146126ef57600080fd5b60008060008060008060008060e0898b03121561284257600080fd5b61284b89612802565b975061285960208a01612802565b965060408901359550606089013594506080890135935061287c60a08a016126dd565b925060c089013567ffffffffffffffff81111561289857600080fd5b6128a48b828c016126f4565b999c989b5096995094979396929594505050565b6000602082840312156128ca57600080fd5b6128d382612802565b9392505050565b600080604083850312156128ed57600080fd5b50508035926020909101359150565b600080600080600060a0868803121561291457600080fd5b61291d86612802565b945061292b60208701612802565b94979496505050506040830135926060810135926080909101359150565b600080600080600080600060e0888a03121561296457600080fd5b61296d88612802565b965061297b60208901612802565b955060408801359450606088013593506080880135925061299e60a08901612802565b915060c0880135905092959891949750929550565b60008060008060008060a087890312156129cc57600080fd5b863567ffffffffffffffff8111156129e357600080fd5b6129ef89828a016126f4565b9097509550612a02905060208801612802565b9350612a1060408801612802565b925060608701359150608087013590509295509295509295565b60008060408385031215612a3d57600080fd5b612a4683612802565b9150612a5460208401612802565b90509250929050565b805180151581146126ef57600080fd5b600060208284031215612a7f57600080fd5b6128d382612a5d565b60005b83811015612aa3578181015183820152602001612a8b565b50506000910152565b60008151808452612ac4816020860160208601612a88565b601f017fffffffffffffffffffffffffffffffffffffffffffffffffffffffffffffffe0169290920160200192915050565b81835260007f07ffffffffffffffffffffffffffffffffffffffffffffffffffffffffffffff831115612b2857600080fd5b8260051b80836020870137939093016020019392505050565b8581528460208201526080604082015261ffff845116608082015273ffffffffffffffffffffffffffffffffffffffff60208501511660a082015260006040850151606060c0840152612b9760e0840182612aac565b90508281036060840152612bac818587612af6565b98975050505050505050565b87815286602082015285604082015261ffff8516606082015260c060808201526000612be860c083018587612af6565b905060028310612c21577f4e487b7100000000000000000000000000000000000000000000000000000000600052602160045260246000fd5b8260a083015298975050505050505050565b7f4e487b7100000000000000000000000000000000000000000000000000000000600052604160045260246000fd5b6000610120878352602073ffffffffffffffffffffffffffffffffffffffff885116818501528088015160408501526040880151606085015260608801516080850152608088015160a08501528160c0850152612cc182850188612aac565b915083820360e08501528186518084528284019150828160051b85010183890160005b83811015612d30577fffffffffffffffffffffffffffffffffffffffffffffffffffffffffffffffe0878403018552612d1e838351612aac565b94860194925090850190600101612ce4565b505073ffffffffffffffffffffffffffffffffffffffff88166101008801529450610c4f9350505050565b600060208284031215612d6d57600080fd5b5051919050565b7f4e487b7100000000000000000000000000000000000000000000000000000000600052603260045260246000fd5b60008083357fffffffffffffffffffffffffffffffffffffffffffffffffffffffffffffffe1843603018112612dd857600080fd5b83018035915067ffffffffffffffff821115612df357600080fd5b60200191503681900382131561273957600080fd5b604051601f82017fffffffffffffffffffffffffffffffffffffffffffffffffffffffffffffffe016810167ffffffffffffffff81118282101715612e4f57612e4f612c33565b604052919050565b600067ffffffffffffffff80841115612e7257612e72612c33565b8360051b6020612e83818301612e08565b868152918501918181019036841115612e9b57600080fd5b865b84811015612f3e57803586811115612eb55760008081fd5b8801601f3681830112612ec85760008081fd5b813588811115612eda57612eda612c33565b612f09877fffffffffffffffffffffffffffffffffffffffffffffffffffffffffffffffe08484011601612e08565b91508082523687828501011115612f205760008081fd5b80878401888401376000908201870152845250918301918301612e9d565b50979650505050505050565b600073ffffffffffffffffffffffffffffffffffffffff808616835280851660208401525060606040830152612f836060830184612aac565b95945050505050565b600060408284031215612f9e57600080fd5b6040516040810181811067ffffffffffffffff82111715612fc157612fc1612c33565b604052612fcd83612a5d565b8152602083015160208201528091505092915050565b7f4e487b7100000000000000000000000000000000000000000000000000000000600052601160045260246000fd5b8181038181111561302557613025612fe3565b92915050565b8082018082111561302557613025612fe3565b600073ffffffffffffffffffffffffffffffffffffffff8088168352808716602084015280861660408401525083606083015260a0608083015261219260a0830184612aac565b7f4e487b7100000000000000000000000000000000000000000000000000000000600052601260045260246000fd5b6000826130c3576130c3613085565b500690565b6000826130d7576130d7613085565b500490565b600082516130ee818460208701612a88565b9190910192915050565b838152826020820152606060408201526000612f836060830184612aac565b60608152600061312a6060830186612aac565b828103602084015261313c8186612aac565b90508281036040840152610c4f8185612aac565b6020815260006128d36020830184612aac56fea2646970667358221220a24848b315920ee7dc28e2c950bf1a02c948f0e3ae89d203c5bfbd16607b409a64736f6c63430008110033",
  "linkReferences": {},
  "deployedLinkReferences": {}
}